{
	"EtherWallet.sol": {
		"EtherWallet": {
			"abi": [
				{
					"inputs": [],
					"stateMutability": "nonpayable",
					"type": "constructor"
				},
				{
					"anonymous": false,
					"inputs": [
						{
							"indexed": true,
							"internalType": "address",
							"name": "account",
							"type": "address"
						},
						{
							"indexed": false,
							"internalType": "uint256",
							"name": "amount",
							"type": "uint256"
						}
					],
					"name": "Deposit",
					"type": "event"
				},
				{
					"anonymous": false,
					"inputs": [
						{
							"indexed": true,
							"internalType": "address",
							"name": "account",
							"type": "address"
						},
						{
							"indexed": false,
							"internalType": "uint256",
							"name": "amount",
							"type": "uint256"
						}
					],
					"name": "Withdraw",
					"type": "event"
				},
				{
					"stateMutability": "payable",
					"type": "fallback"
				},
				{
					"inputs": [],
					"name": "owner",
					"outputs": [
						{
							"internalType": "address payable",
							"name": "",
							"type": "address"
						}
					],
					"stateMutability": "view",
					"type": "function"
				},
				{
					"inputs": [
						{
							"internalType": "int256",
							"name": "amount",
							"type": "int256"
						}
					],
					"name": "withdraw",
					"outputs": [],
					"stateMutability": "nonpayable",
					"type": "function"
				},
				{
					"stateMutability": "payable",
					"type": "receive"
				}
			],
			"devdoc": {
				"kind": "dev",
				"methods": {},
				"version": 1
			},
			"evm": {
				"assembly": "    /* \"EtherWallet.sol\":57:554  contract EtherWallet {... */\n  mstore(0x40, 0x80)\n    /* \"EtherWallet.sol\":236:293  constructor(){... */\n  callvalue\n  dup1\n  iszero\n  tag_1\n  jumpi\n  0x00\n  dup1\n  revert\ntag_1:\n  pop\n    /* \"EtherWallet.sol\":275:285  msg.sender */\n  caller\n    /* \"EtherWallet.sol\":259:264  owner */\n  0x00\n  dup1\n    /* \"EtherWallet.sol\":259:286  owner = payable(msg.sender) */\n  0x0100\n  exp\n  dup2\n  sload\n  dup2\n  0xffffffffffffffffffffffffffffffffffffffff\n  mul\n  not\n  and\n  swap1\n  dup4\n  0xffffffffffffffffffffffffffffffffffffffff\n  and\n  mul\n  or\n  swap1\n  sstore\n  pop\n    /* \"EtherWallet.sol\":57:554  contract EtherWallet {... */\n  dataSize(sub_0)\n  dup1\n  dataOffset(sub_0)\n  0x00\n  codecopy\n  0x00\n  return\nstop\n\nsub_0: assembly {\n        /* \"EtherWallet.sol\":57:554  contract EtherWallet {... */\n      mstore(0x40, 0x80)\n      jumpi(tag_1, lt(calldatasize, 0x04))\n      shr(0xe0, calldataload(0x00))\n      dup1\n      0x7e62eab8\n      eq\n      tag_3\n      jumpi\n      dup1\n      0x8da5cb5b\n      eq\n      tag_4\n      jumpi\n      jump(tag_2)\n    tag_1:\n      jumpi(tag_2, calldatasize)\n      stop\n    tag_2:\n      stop\n        /* \"EtherWallet.sol\":381:483  function withdraw(int amount) public onlyOwner {... */\n    tag_3:\n      callvalue\n      dup1\n      iszero\n      tag_9\n      jumpi\n      0x00\n      dup1\n      revert\n    tag_9:\n      pop\n      tag_10\n      0x04\n      dup1\n      calldatasize\n      sub\n      dup2\n      add\n      swap1\n      tag_11\n      swap2\n      swap1\n      tag_12\n      jump\t// in\n    tag_11:\n      tag_13\n      jump\t// in\n    tag_10:\n      stop\n        /* \"EtherWallet.sol\":85:113  address payable public owner */\n    tag_4:\n      callvalue\n      dup1\n      iszero\n      tag_14\n      jumpi\n      0x00\n      dup1\n      revert\n    tag_14:\n      pop\n      tag_15\n      tag_16\n      jump\t// in\n    tag_15:\n      mload(0x40)\n      tag_17\n      swap2\n      swap1\n      tag_18\n      jump\t// in\n    tag_17:\n      mload(0x40)\n      dup1\n      swap2\n      sub\n      swap1\n      return\n        /* \"EtherWallet.sol\":381:483  function withdraw(int amount) public onlyOwner {... */\n    tag_13:\n        /* \"EtherWallet.sol\":346:356  msg.sender */\n      caller\n        /* \"EtherWallet.sol\":337:356  owner == msg.sender */\n      0xffffffffffffffffffffffffffffffffffffffff\n      and\n        /* \"EtherWallet.sol\":337:342  owner */\n      0x00\n      dup1\n      sload\n      swap1\n      0x0100\n      exp\n      swap1\n      div\n      0xffffffffffffffffffffffffffffffffffffffff\n      and\n        /* \"EtherWallet.sol\":337:356  owner == msg.sender */\n      0xffffffffffffffffffffffffffffffffffffffff\n      and\n      eq\n        /* \"EtherWallet.sol\":329:357  require(owner == msg.sender) */\n      tag_20\n      jumpi\n      0x00\n      dup1\n      revert\n    tag_20:\n        /* \"EtherWallet.sol\":438:443  owner */\n      0x00\n      dup1\n      sload\n      swap1\n      0x0100\n      exp\n      swap1\n      div\n      0xffffffffffffffffffffffffffffffffffffffff\n      and\n        /* \"EtherWallet.sol\":438:452  owner.transfer */\n      0xffffffffffffffffffffffffffffffffffffffff\n      and\n        /* \"EtherWallet.sol\":438:475  owner.transfer(address(this).balance) */\n      0x08fc\n        /* \"EtherWallet.sol\":453:474  address(this).balance */\n      selfbalance\n        /* \"EtherWallet.sol\":438:475  owner.transfer(address(this).balance) */\n      swap1\n      dup2\n      iszero\n      mul\n      swap1\n      mload(0x40)\n      0x00\n      mload(0x40)\n      dup1\n      dup4\n      sub\n      dup2\n      dup6\n      dup9\n      dup9\n      call\n      swap4\n      pop\n      pop\n      pop\n      pop\n      iszero\n      dup1\n      iszero\n      tag_23\n      jumpi\n      returndatasize\n      0x00\n      dup1\n      returndatacopy\n      revert(0x00, returndatasize)\n    tag_23:\n      pop\n        /* \"EtherWallet.sol\":381:483  function withdraw(int amount) public onlyOwner {... */\n      pop\n      jump\t// out\n        /* \"EtherWallet.sol\":85:113  address payable public owner */\n    tag_16:\n      0x00\n      dup1\n      sload\n      swap1\n      0x0100\n      exp\n      swap1\n      div\n      0xffffffffffffffffffffffffffffffffffffffff\n      and\n      dup2\n      jump\t// out\n        /* \"#utility.yul\":7:144   */\n    tag_25:\n        /* \"#utility.yul\":52:57   */\n      0x00\n        /* \"#utility.yul\":90:96   */\n      dup2\n        /* \"#utility.yul\":77:97   */\n      calldataload\n        /* \"#utility.yul\":68:97   */\n      swap1\n      pop\n        /* \"#utility.yul\":106:138   */\n      tag_27\n        /* \"#utility.yul\":132:137   */\n      dup2\n        /* \"#utility.yul\":106:138   */\n      tag_28\n      jump\t// in\n    tag_27:\n        /* \"#utility.yul\":7:144   */\n      swap3\n      swap2\n      pop\n      pop\n      jump\t// out\n        /* \"#utility.yul\":150:477   */\n    tag_12:\n        /* \"#utility.yul\":208:214   */\n      0x00\n        /* \"#utility.yul\":257:259   */\n      0x20\n        /* \"#utility.yul\":245:254   */\n      dup3\n        /* \"#utility.yul\":236:243   */\n      dup5\n        /* \"#utility.yul\":232:255   */\n      sub\n        /* \"#utility.yul\":228:260   */\n      slt\n        /* \"#utility.yul\":225:344   */\n      iszero\n      tag_30\n      jumpi\n        /* \"#utility.yul\":263:342   */\n      tag_31\n      tag_32\n      jump\t// in\n    tag_31:\n        /* \"#utility.yul\":225:344   */\n    tag_30:\n        /* \"#utility.yul\":383:384   */\n      0x00\n        /* \"#utility.yul\":408:460   */\n      tag_33\n        /* \"#utility.yul\":452:459   */\n      dup5\n        /* \"#utility.yul\":443:449   */\n      dup3\n        /* \"#utility.yul\":432:441   */\n      dup6\n        /* \"#utility.yul\":428:450   */\n      add\n        /* \"#utility.yul\":408:460   */\n      tag_25\n      jump\t// in\n    tag_33:\n        /* \"#utility.yul\":398:460   */\n      swap2\n      pop\n        /* \"#utility.yul\":354:470   */\n      pop\n        /* \"#utility.yul\":150:477   */\n      swap3\n      swap2\n      pop\n      pop\n      jump\t// out\n        /* \"#utility.yul\":483:625   */\n    tag_34:\n        /* \"#utility.yul\":586:618   */\n      tag_36\n        /* \"#utility.yul\":612:617   */\n      dup2\n        /* \"#utility.yul\":586:618   */\n      tag_37\n      jump\t// in\n    tag_36:\n        /* \"#utility.yul\":581:584   */\n      dup3\n        /* \"#utility.yul\":574:619   */\n      mstore\n        /* \"#utility.yul\":483:625   */\n      pop\n      pop\n      jump\t// out\n        /* \"#utility.yul\":631:885   */\n    tag_18:\n        /* \"#utility.yul\":740:744   */\n      0x00\n        /* \"#utility.yul\":778:780   */\n      0x20\n        /* \"#utility.yul\":767:776   */\n      dup3\n        /* \"#utility.yul\":763:781   */\n      add\n        /* \"#utility.yul\":755:781   */\n      swap1\n      pop\n        /* \"#utility.yul\":791:878   */\n      tag_39\n        /* \"#utility.yul\":875:876   */\n      0x00\n        /* \"#utility.yul\":864:873   */\n      dup4\n        /* \"#utility.yul\":860:877   */\n      add\n        /* \"#utility.yul\":851:857   */\n      dup5\n        /* \"#utility.yul\":791:878   */\n      tag_34\n      jump\t// in\n    tag_39:\n        /* \"#utility.yul\":631:885   */\n      swap3\n      swap2\n      pop\n      pop\n      jump\t// out\n        /* \"#utility.yul\":972:1076   */\n    tag_37:\n        /* \"#utility.yul\":1017:1024   */\n      0x00\n        /* \"#utility.yul\":1046:1070   */\n      tag_43\n        /* \"#utility.yul\":1064:1069   */\n      dup3\n        /* \"#utility.yul\":1046:1070   */\n      tag_44\n      jump\t// in\n    tag_43:\n        /* \"#utility.yul\":1035:1070   */\n      swap1\n      pop\n        /* \"#utility.yul\":972:1076   */\n      swap2\n      swap1\n      pop\n      jump\t// out\n        /* \"#utility.yul\":1082:1158   */\n    tag_45:\n        /* \"#utility.yul\":1118:1125   */\n      0x00\n        /* \"#utility.yul\":1147:1152   */\n      dup2\n        /* \"#utility.yul\":1136:1152   */\n      swap1\n      pop\n        /* \"#utility.yul\":1082:1158   */\n      swap2\n      swap1\n      pop\n      jump\t// out\n        /* \"#utility.yul\":1164:1290   */\n    tag_44:\n        /* \"#utility.yul\":1201:1208   */\n      0x00\n        /* \"#utility.yul\":1241:1283   */\n      0xffffffffffffffffffffffffffffffffffffffff\n        /* \"#utility.yul\":1234:1239   */\n      dup3\n        /* \"#utility.yul\":1230:1284   */\n      and\n        /* \"#utility.yul\":1219:1284   */\n      swap1\n      pop\n        /* \"#utility.yul\":1164:1290   */\n      swap2\n      swap1\n      pop\n      jump\t// out\n        /* \"#utility.yul\":1419:1536   */\n    tag_32:\n        /* \"#utility.yul\":1528:1529   */\n      0x00\n        /* \"#utility.yul\":1525:1526   */\n      dup1\n        /* \"#utility.yul\":1518:1530   */\n      revert\n        /* \"#utility.yul\":1542:1662   */\n    tag_28:\n        /* \"#utility.yul\":1614:1637   */\n      tag_52\n        /* \"#utility.yul\":1631:1636   */\n      dup2\n        /* \"#utility.yul\":1614:1637   */\n      tag_45\n      jump\t// in\n    tag_52:\n        /* \"#utility.yul\":1607:1612   */\n      dup2\n        /* \"#utility.yul\":1604:1638   */\n      eq\n        /* \"#utility.yul\":1594:1656   */\n      tag_53\n      jumpi\n        /* \"#utility.yul\":1652:1653   */\n      0x00\n        /* \"#utility.yul\":1649:1650   */\n      dup1\n        /* \"#utility.yul\":1642:1654   */\n      revert\n        /* \"#utility.yul\":1594:1656   */\n    tag_53:\n        /* \"#utility.yul\":1542:1662   */\n      pop\n      jump\t// out\n\n    auxdata: 0xa2646970667358221220bbf57948f0b12ab6afa693eb7e4c943f89017264921b5e574302042f283e98c764736f6c63430008070033\n}\n",
				"bytecode": {
					"linkReferences": {},
					"object": "608060405234801561001057600080fd5b50336000806101000a81548173ffffffffffffffffffffffffffffffffffffffff021916908373ffffffffffffffffffffffffffffffffffffffff16021790555061026a806100606000396000f3fe60806040526004361061002d5760003560e01c80637e62eab8146100365780638da5cb5b1461005f57610034565b3661003457005b005b34801561004257600080fd5b5061005d60048036038101906100589190610185565b61008a565b005b34801561006b57600080fd5b5061007461014c565b60405161008191906101c1565b60405180910390f35b3373ffffffffffffffffffffffffffffffffffffffff1660008054906101000a900473ffffffffffffffffffffffffffffffffffffffff1673ffffffffffffffffffffffffffffffffffffffff16146100e257600080fd5b60008054906101000a900473ffffffffffffffffffffffffffffffffffffffff1673ffffffffffffffffffffffffffffffffffffffff166108fc479081150290604051600060405180830381858888f19350505050158015610148573d6000803e3d6000fd5b5050565b60008054906101000a900473ffffffffffffffffffffffffffffffffffffffff1681565b60008135905061017f8161021d565b92915050565b60006020828403121561019b5761019a610218565b5b60006101a984828501610170565b91505092915050565b6101bb816101dc565b82525050565b60006020820190506101d660008301846101b2565b92915050565b60006101e7826101f8565b9050919050565b6000819050919050565b600073ffffffffffffffffffffffffffffffffffffffff82169050919050565b600080fd5b610226816101ee565b811461023157600080fd5b5056fea2646970667358221220bbf57948f0b12ab6afa693eb7e4c943f89017264921b5e574302042f283e98c764736f6c63430008070033",
					"opcodes": "PUSH1 0x80 PUSH1 0x40 MSTORE CALLVALUE DUP1 ISZERO PUSH2 0x10 JUMPI PUSH1 0x0 DUP1 REVERT JUMPDEST POP CALLER PUSH1 0x0 DUP1 PUSH2 0x100 EXP DUP2 SLOAD DUP2 PUSH20 0xFFFFFFFFFFFFFFFFFFFFFFFFFFFFFFFFFFFFFFFF MUL NOT AND SWAP1 DUP4 PUSH20 0xFFFFFFFFFFFFFFFFFFFFFFFFFFFFFFFFFFFFFFFF AND MUL OR SWAP1 SSTORE POP PUSH2 0x26A DUP1 PUSH2 0x60 PUSH1 0x0 CODECOPY PUSH1 0x0 RETURN INVALID PUSH1 0x80 PUSH1 0x40 MSTORE PUSH1 0x4 CALLDATASIZE LT PUSH2 0x2D JUMPI PUSH1 0x0 CALLDATALOAD PUSH1 0xE0 SHR DUP1 PUSH4 0x7E62EAB8 EQ PUSH2 0x36 JUMPI DUP1 PUSH4 0x8DA5CB5B EQ PUSH2 0x5F JUMPI PUSH2 0x34 JUMP JUMPDEST CALLDATASIZE PUSH2 0x34 JUMPI STOP JUMPDEST STOP JUMPDEST CALLVALUE DUP1 ISZERO PUSH2 0x42 JUMPI PUSH1 0x0 DUP1 REVERT JUMPDEST POP PUSH2 0x5D PUSH1 0x4 DUP1 CALLDATASIZE SUB DUP2 ADD SWAP1 PUSH2 0x58 SWAP2 SWAP1 PUSH2 0x185 JUMP JUMPDEST PUSH2 0x8A JUMP JUMPDEST STOP JUMPDEST CALLVALUE DUP1 ISZERO PUSH2 0x6B JUMPI PUSH1 0x0 DUP1 REVERT JUMPDEST POP PUSH2 0x74 PUSH2 0x14C JUMP JUMPDEST PUSH1 0x40 MLOAD PUSH2 0x81 SWAP2 SWAP1 PUSH2 0x1C1 JUMP JUMPDEST PUSH1 0x40 MLOAD DUP1 SWAP2 SUB SWAP1 RETURN JUMPDEST CALLER PUSH20 0xFFFFFFFFFFFFFFFFFFFFFFFFFFFFFFFFFFFFFFFF AND PUSH1 0x0 DUP1 SLOAD SWAP1 PUSH2 0x100 EXP SWAP1 DIV PUSH20 0xFFFFFFFFFFFFFFFFFFFFFFFFFFFFFFFFFFFFFFFF AND PUSH20 0xFFFFFFFFFFFFFFFFFFFFFFFFFFFFFFFFFFFFFFFF AND EQ PUSH2 0xE2 JUMPI PUSH1 0x0 DUP1 REVERT JUMPDEST PUSH1 0x0 DUP1 SLOAD SWAP1 PUSH2 0x100 EXP SWAP1 DIV PUSH20 0xFFFFFFFFFFFFFFFFFFFFFFFFFFFFFFFFFFFFFFFF AND PUSH20 0xFFFFFFFFFFFFFFFFFFFFFFFFFFFFFFFFFFFFFFFF AND PUSH2 0x8FC SELFBALANCE SWAP1 DUP2 ISZERO MUL SWAP1 PUSH1 0x40 MLOAD PUSH1 0x0 PUSH1 0x40 MLOAD DUP1 DUP4 SUB DUP2 DUP6 DUP9 DUP9 CALL SWAP4 POP POP POP POP ISZERO DUP1 ISZERO PUSH2 0x148 JUMPI RETURNDATASIZE PUSH1 0x0 DUP1 RETURNDATACOPY RETURNDATASIZE PUSH1 0x0 REVERT JUMPDEST POP POP JUMP JUMPDEST PUSH1 0x0 DUP1 SLOAD SWAP1 PUSH2 0x100 EXP SWAP1 DIV PUSH20 0xFFFFFFFFFFFFFFFFFFFFFFFFFFFFFFFFFFFFFFFF AND DUP2 JUMP JUMPDEST PUSH1 0x0 DUP2 CALLDATALOAD SWAP1 POP PUSH2 0x17F DUP2 PUSH2 0x21D JUMP JUMPDEST SWAP3 SWAP2 POP POP JUMP JUMPDEST PUSH1 0x0 PUSH1 0x20 DUP3 DUP5 SUB SLT ISZERO PUSH2 0x19B JUMPI PUSH2 0x19A PUSH2 0x218 JUMP JUMPDEST JUMPDEST PUSH1 0x0 PUSH2 0x1A9 DUP5 DUP3 DUP6 ADD PUSH2 0x170 JUMP JUMPDEST SWAP2 POP POP SWAP3 SWAP2 POP POP JUMP JUMPDEST PUSH2 0x1BB DUP2 PUSH2 0x1DC JUMP JUMPDEST DUP3 MSTORE POP POP JUMP JUMPDEST PUSH1 0x0 PUSH1 0x20 DUP3 ADD SWAP1 POP PUSH2 0x1D6 PUSH1 0x0 DUP4 ADD DUP5 PUSH2 0x1B2 JUMP JUMPDEST SWAP3 SWAP2 POP POP JUMP JUMPDEST PUSH1 0x0 PUSH2 0x1E7 DUP3 PUSH2 0x1F8 JUMP JUMPDEST SWAP1 POP SWAP2 SWAP1 POP JUMP JUMPDEST PUSH1 0x0 DUP2 SWAP1 POP SWAP2 SWAP1 POP JUMP JUMPDEST PUSH1 0x0 PUSH20 0xFFFFFFFFFFFFFFFFFFFFFFFFFFFFFFFFFFFFFFFF DUP3 AND SWAP1 POP SWAP2 SWAP1 POP JUMP JUMPDEST PUSH1 0x0 DUP1 REVERT JUMPDEST PUSH2 0x226 DUP2 PUSH2 0x1EE JUMP JUMPDEST DUP2 EQ PUSH2 0x231 JUMPI PUSH1 0x0 DUP1 REVERT JUMPDEST POP JUMP INVALID LOG2 PUSH5 0x6970667358 0x22 SLT KECCAK256 0xBB CREATE2 PUSH26 0x48F0B12AB6AFA693EB7E4C943F89017264921B5E574302042F28 RETURNDATACOPY SWAP9 0xC7 PUSH5 0x736F6C6343 STOP ADDMOD SMOD STOP CALLER "
				},
				"gasEstimates": {
					"creation": {
						"codeDepositCost": "123600",
						"executionCost": "24437",
						"totalCost": "148037"
					},
					"external": {
						"": "107",
						"owner()": "2511",
						"withdraw(int256)": "infinite"
					}
				},
				"methodIdentifiers": {
					"owner()": "8da5cb5b",
					"withdraw(int256)": "7e62eab8"
				}
			},
			"storageLayout": {
				"storage": [
					{
						"astId": 3,
						"contract": "EtherWallet.sol:EtherWallet",
						"label": "owner",
						"offset": 0,
						"slot": "0",
						"type": "t_address_payable"
					}
				],
				"types": {
					"t_address_payable": {
						"encoding": "inplace",
						"label": "address payable",
						"numberOfBytes": "20"
					}
				}
			},
			"userdoc": {
				"kind": "user",
				"methods": {},
				"version": 1
			}
		}
	}
}