{
	"EtherWallet.sol": {
		"EtherWallet": {
			"abi": [
				{
					"inputs": [],
					"stateMutability": "nonpayable",
					"type": "constructor"
				},
				{
					"anonymous": false,
					"inputs": [
						{
							"indexed": true,
							"internalType": "address",
							"name": "account",
							"type": "address"
						},
						{
							"indexed": false,
							"internalType": "uint256",
							"name": "amount",
							"type": "uint256"
						}
					],
					"name": "Withdraw",
					"type": "event"
				},
				{
					"anonymous": false,
					"inputs": [
						{
							"indexed": true,
							"internalType": "address",
							"name": "account",
							"type": "address"
						},
						{
							"indexed": false,
							"internalType": "uint256",
							"name": "amount",
							"type": "uint256"
						}
					],
					"name": "deposit",
					"type": "event"
				},
				{
					"stateMutability": "payable",
					"type": "fallback"
				},
				{
					"inputs": [],
					"name": "owner",
					"outputs": [
						{
							"internalType": "address payable",
							"name": "",
							"type": "address"
						}
					],
					"stateMutability": "view",
					"type": "function"
				},
				{
					"inputs": [],
					"name": "withdraw",
					"outputs": [],
					"stateMutability": "nonpayable",
					"type": "function"
				},
				{
					"stateMutability": "payable",
					"type": "receive"
				}
			],
			"devdoc": {
				"kind": "dev",
				"methods": {},
				"version": 1
			},
			"evm": {
				"assembly": "    /* \"EtherWallet.sol\":57:544  contract EtherWallet {... */\n  mstore(0x40, 0x80)\n    /* \"EtherWallet.sol\":236:293  constructor(){... */\n  callvalue\n  dup1\n  iszero\n  tag_1\n  jumpi\n  0x00\n  dup1\n  revert\ntag_1:\n  pop\n    /* \"EtherWallet.sol\":275:285  msg.sender */\n  caller\n    /* \"EtherWallet.sol\":259:264  owner */\n  0x00\n  dup1\n    /* \"EtherWallet.sol\":259:286  owner = payable(msg.sender) */\n  0x0100\n  exp\n  dup2\n  sload\n  dup2\n  0xffffffffffffffffffffffffffffffffffffffff\n  mul\n  not\n  and\n  swap1\n  dup4\n  0xffffffffffffffffffffffffffffffffffffffff\n  and\n  mul\n  or\n  swap1\n  sstore\n  pop\n    /* \"EtherWallet.sol\":57:544  contract EtherWallet {... */\n  dataSize(sub_0)\n  dup1\n  dataOffset(sub_0)\n  0x00\n  codecopy\n  0x00\n  return\nstop\n\nsub_0: assembly {\n        /* \"EtherWallet.sol\":57:544  contract EtherWallet {... */\n      mstore(0x40, 0x80)\n      jumpi(tag_1, lt(calldatasize, 0x04))\n      shr(0xe0, calldataload(0x00))\n      dup1\n      0x3ccfd60b\n      eq\n      tag_3\n      jumpi\n      dup1\n      0x8da5cb5b\n      eq\n      tag_4\n      jumpi\n      jump(tag_2)\n    tag_1:\n      jumpi(tag_2, calldatasize)\n      stop\n    tag_2:\n      stop\n        /* \"EtherWallet.sol\":381:473  function withdraw() public onlyOwner {... */\n    tag_3:\n      callvalue\n      dup1\n      iszero\n      tag_9\n      jumpi\n      0x00\n      dup1\n      revert\n    tag_9:\n      pop\n      tag_10\n      tag_11\n      jump\t// in\n    tag_10:\n      stop\n        /* \"EtherWallet.sol\":85:113  address payable public owner */\n    tag_4:\n      callvalue\n      dup1\n      iszero\n      tag_12\n      jumpi\n      0x00\n      dup1\n      revert\n    tag_12:\n      pop\n      tag_13\n      tag_14\n      jump\t// in\n    tag_13:\n      mload(0x40)\n      tag_15\n      swap2\n      swap1\n      tag_16\n      jump\t// in\n    tag_15:\n      mload(0x40)\n      dup1\n      swap2\n      sub\n      swap1\n      return\n        /* \"EtherWallet.sol\":381:473  function withdraw() public onlyOwner {... */\n    tag_11:\n        /* \"EtherWallet.sol\":346:356  msg.sender */\n      caller\n        /* \"EtherWallet.sol\":337:356  owner == msg.sender */\n      0xffffffffffffffffffffffffffffffffffffffff\n      and\n        /* \"EtherWallet.sol\":337:342  owner */\n      0x00\n      dup1\n      sload\n      swap1\n      0x0100\n      exp\n      swap1\n      div\n      0xffffffffffffffffffffffffffffffffffffffff\n      and\n        /* \"EtherWallet.sol\":337:356  owner == msg.sender */\n      0xffffffffffffffffffffffffffffffffffffffff\n      and\n      eq\n        /* \"EtherWallet.sol\":329:357  require(owner == msg.sender) */\n      tag_18\n      jumpi\n      0x00\n      dup1\n      revert\n    tag_18:\n        /* \"EtherWallet.sol\":428:433  owner */\n      0x00\n      dup1\n      sload\n      swap1\n      0x0100\n      exp\n      swap1\n      div\n      0xffffffffffffffffffffffffffffffffffffffff\n      and\n        /* \"EtherWallet.sol\":428:442  owner.transfer */\n      0xffffffffffffffffffffffffffffffffffffffff\n      and\n        /* \"EtherWallet.sol\":428:465  owner.transfer(address(this).balance) */\n      0x08fc\n        /* \"EtherWallet.sol\":443:464  address(this).balance */\n      selfbalance\n        /* \"EtherWallet.sol\":428:465  owner.transfer(address(this).balance) */\n      swap1\n      dup2\n      iszero\n      mul\n      swap1\n      mload(0x40)\n      0x00\n      mload(0x40)\n      dup1\n      dup4\n      sub\n      dup2\n      dup6\n      dup9\n      dup9\n      call\n      swap4\n      pop\n      pop\n      pop\n      pop\n      iszero\n      dup1\n      iszero\n      tag_21\n      jumpi\n      returndatasize\n      0x00\n      dup1\n      returndatacopy\n      revert(0x00, returndatasize)\n    tag_21:\n      pop\n        /* \"EtherWallet.sol\":381:473  function withdraw() public onlyOwner {... */\n      jump\t// out\n        /* \"EtherWallet.sol\":85:113  address payable public owner */\n    tag_14:\n      0x00\n      dup1\n      sload\n      swap1\n      0x0100\n      exp\n      swap1\n      div\n      0xffffffffffffffffffffffffffffffffffffffff\n      and\n      dup2\n      jump\t// out\n        /* \"#utility.yul\":7:149   */\n    tag_23:\n        /* \"#utility.yul\":110:142   */\n      tag_25\n        /* \"#utility.yul\":136:141   */\n      dup2\n        /* \"#utility.yul\":110:142   */\n      tag_26\n      jump\t// in\n    tag_25:\n        /* \"#utility.yul\":105:108   */\n      dup3\n        /* \"#utility.yul\":98:143   */\n      mstore\n        /* \"#utility.yul\":7:149   */\n      pop\n      pop\n      jump\t// out\n        /* \"#utility.yul\":155:409   */\n    tag_16:\n        /* \"#utility.yul\":264:268   */\n      0x00\n        /* \"#utility.yul\":302:304   */\n      0x20\n        /* \"#utility.yul\":291:300   */\n      dup3\n        /* \"#utility.yul\":287:305   */\n      add\n        /* \"#utility.yul\":279:305   */\n      swap1\n      pop\n        /* \"#utility.yul\":315:402   */\n      tag_28\n        /* \"#utility.yul\":399:400   */\n      0x00\n        /* \"#utility.yul\":388:397   */\n      dup4\n        /* \"#utility.yul\":384:401   */\n      add\n        /* \"#utility.yul\":375:381   */\n      dup5\n        /* \"#utility.yul\":315:402   */\n      tag_23\n      jump\t// in\n    tag_28:\n        /* \"#utility.yul\":155:409   */\n      swap3\n      swap2\n      pop\n      pop\n      jump\t// out\n        /* \"#utility.yul\":415:519   */\n    tag_26:\n        /* \"#utility.yul\":460:467   */\n      0x00\n        /* \"#utility.yul\":489:513   */\n      tag_30\n        /* \"#utility.yul\":507:512   */\n      dup3\n        /* \"#utility.yul\":489:513   */\n      tag_31\n      jump\t// in\n    tag_30:\n        /* \"#utility.yul\":478:513   */\n      swap1\n      pop\n        /* \"#utility.yul\":415:519   */\n      swap2\n      swap1\n      pop\n      jump\t// out\n        /* \"#utility.yul\":525:651   */\n    tag_31:\n        /* \"#utility.yul\":562:569   */\n      0x00\n        /* \"#utility.yul\":602:644   */\n      0xffffffffffffffffffffffffffffffffffffffff\n        /* \"#utility.yul\":595:600   */\n      dup3\n        /* \"#utility.yul\":591:645   */\n      and\n        /* \"#utility.yul\":580:645   */\n      swap1\n      pop\n        /* \"#utility.yul\":525:651   */\n      swap2\n      swap1\n      pop\n      jump\t// out\n\n    auxdata: 0xa26469706673582212201a15883df9fb190fa7bb489f3c02fdb19899a8d9402571bcb839cb0fb5fb94f864736f6c63430008070033\n}\n",
				"bytecode": {
					"linkReferences": {},
					"object": "608060405234801561001057600080fd5b50336000806101000a81548173ffffffffffffffffffffffffffffffffffffffff021916908373ffffffffffffffffffffffffffffffffffffffff1602179055506101ef806100606000396000f3fe60806040526004361061002d5760003560e01c80633ccfd60b146100365780638da5cb5b1461004d57610034565b3661003457005b005b34801561004257600080fd5b5061004b610078565b005b34801561005957600080fd5b50610062610139565b60405161006f919061016c565b60405180910390f35b3373ffffffffffffffffffffffffffffffffffffffff1660008054906101000a900473ffffffffffffffffffffffffffffffffffffffff1673ffffffffffffffffffffffffffffffffffffffff16146100d057600080fd5b60008054906101000a900473ffffffffffffffffffffffffffffffffffffffff1673ffffffffffffffffffffffffffffffffffffffff166108fc479081150290604051600060405180830381858888f19350505050158015610136573d6000803e3d6000fd5b50565b60008054906101000a900473ffffffffffffffffffffffffffffffffffffffff1681565b61016681610187565b82525050565b6000602082019050610181600083018461015d565b92915050565b600061019282610199565b9050919050565b600073ffffffffffffffffffffffffffffffffffffffff8216905091905056fea26469706673582212201a15883df9fb190fa7bb489f3c02fdb19899a8d9402571bcb839cb0fb5fb94f864736f6c63430008070033",
					"opcodes": "PUSH1 0x80 PUSH1 0x40 MSTORE CALLVALUE DUP1 ISZERO PUSH2 0x10 JUMPI PUSH1 0x0 DUP1 REVERT JUMPDEST POP CALLER PUSH1 0x0 DUP1 PUSH2 0x100 EXP DUP2 SLOAD DUP2 PUSH20 0xFFFFFFFFFFFFFFFFFFFFFFFFFFFFFFFFFFFFFFFF MUL NOT AND SWAP1 DUP4 PUSH20 0xFFFFFFFFFFFFFFFFFFFFFFFFFFFFFFFFFFFFFFFF AND MUL OR SWAP1 SSTORE POP PUSH2 0x1EF DUP1 PUSH2 0x60 PUSH1 0x0 CODECOPY PUSH1 0x0 RETURN INVALID PUSH1 0x80 PUSH1 0x40 MSTORE PUSH1 0x4 CALLDATASIZE LT PUSH2 0x2D JUMPI PUSH1 0x0 CALLDATALOAD PUSH1 0xE0 SHR DUP1 PUSH4 0x3CCFD60B EQ PUSH2 0x36 JUMPI DUP1 PUSH4 0x8DA5CB5B EQ PUSH2 0x4D JUMPI PUSH2 0x34 JUMP JUMPDEST CALLDATASIZE PUSH2 0x34 JUMPI STOP JUMPDEST STOP JUMPDEST CALLVALUE DUP1 ISZERO PUSH2 0x42 JUMPI PUSH1 0x0 DUP1 REVERT JUMPDEST POP PUSH2 0x4B PUSH2 0x78 JUMP JUMPDEST STOP JUMPDEST CALLVALUE DUP1 ISZERO PUSH2 0x59 JUMPI PUSH1 0x0 DUP1 REVERT JUMPDEST POP PUSH2 0x62 PUSH2 0x139 JUMP JUMPDEST PUSH1 0x40 MLOAD PUSH2 0x6F SWAP2 SWAP1 PUSH2 0x16C JUMP JUMPDEST PUSH1 0x40 MLOAD DUP1 SWAP2 SUB SWAP1 RETURN JUMPDEST CALLER PUSH20 0xFFFFFFFFFFFFFFFFFFFFFFFFFFFFFFFFFFFFFFFF AND PUSH1 0x0 DUP1 SLOAD SWAP1 PUSH2 0x100 EXP SWAP1 DIV PUSH20 0xFFFFFFFFFFFFFFFFFFFFFFFFFFFFFFFFFFFFFFFF AND PUSH20 0xFFFFFFFFFFFFFFFFFFFFFFFFFFFFFFFFFFFFFFFF AND EQ PUSH2 0xD0 JUMPI PUSH1 0x0 DUP1 REVERT JUMPDEST PUSH1 0x0 DUP1 SLOAD SWAP1 PUSH2 0x100 EXP SWAP1 DIV PUSH20 0xFFFFFFFFFFFFFFFFFFFFFFFFFFFFFFFFFFFFFFFF AND PUSH20 0xFFFFFFFFFFFFFFFFFFFFFFFFFFFFFFFFFFFFFFFF AND PUSH2 0x8FC SELFBALANCE SWAP1 DUP2 ISZERO MUL SWAP1 PUSH1 0x40 MLOAD PUSH1 0x0 PUSH1 0x40 MLOAD DUP1 DUP4 SUB DUP2 DUP6 DUP9 DUP9 CALL SWAP4 POP POP POP POP ISZERO DUP1 ISZERO PUSH2 0x136 JUMPI RETURNDATASIZE PUSH1 0x0 DUP1 RETURNDATACOPY RETURNDATASIZE PUSH1 0x0 REVERT JUMPDEST POP JUMP JUMPDEST PUSH1 0x0 DUP1 SLOAD SWAP1 PUSH2 0x100 EXP SWAP1 DIV PUSH20 0xFFFFFFFFFFFFFFFFFFFFFFFFFFFFFFFFFFFFFFFF AND DUP2 JUMP JUMPDEST PUSH2 0x166 DUP2 PUSH2 0x187 JUMP JUMPDEST DUP3 MSTORE POP POP JUMP JUMPDEST PUSH1 0x0 PUSH1 0x20 DUP3 ADD SWAP1 POP PUSH2 0x181 PUSH1 0x0 DUP4 ADD DUP5 PUSH2 0x15D JUMP JUMPDEST SWAP3 SWAP2 POP POP JUMP JUMPDEST PUSH1 0x0 PUSH2 0x192 DUP3 PUSH2 0x199 JUMP JUMPDEST SWAP1 POP SWAP2 SWAP1 POP JUMP JUMPDEST PUSH1 0x0 PUSH20 0xFFFFFFFFFFFFFFFFFFFFFFFFFFFFFFFFFFFFFFFF DUP3 AND SWAP1 POP SWAP2 SWAP1 POP JUMP INVALID LOG2 PUSH5 0x6970667358 0x22 SLT KECCAK256 BYTE ISZERO DUP9 RETURNDATASIZE 0xF9 0xFB NOT 0xF 0xA7 0xBB BASEFEE SWAP16 EXTCODECOPY MUL REVERT 0xB1 SWAP9 SWAP10 0xA8 0xD9 BLOCKHASH 0x25 PUSH18 0xBCB839CB0FB5FB94F864736F6C6343000807 STOP CALLER "
				},
				"gasEstimates": {
					"creation": {
						"codeDepositCost": "99000",
						"executionCost": "24413",
						"totalCost": "123413"
					},
					"external": {
						"": "107",
						"owner()": "2511",
						"withdraw()": "infinite"
					}
				},
				"methodIdentifiers": {
					"owner()": "8da5cb5b",
					"withdraw()": "3ccfd60b"
				}
			},
			"storageLayout": {
				"storage": [
					{
						"astId": 3,
						"contract": "EtherWallet.sol:EtherWallet",
						"label": "owner",
						"offset": 0,
						"slot": "0",
						"type": "t_address_payable"
					}
				],
				"types": {
					"t_address_payable": {
						"encoding": "inplace",
						"label": "address payable",
						"numberOfBytes": "20"
					}
				}
			},
			"userdoc": {
				"kind": "user",
				"methods": {},
				"version": 1
			}
		}
	}
}