{
	"EtherWallet.sol": {
		"EtherWallet": {
			"abi": [
				{
					"stateMutability": "payable",
					"type": "fallback"
				},
				{
					"inputs": [],
					"name": "receive",
					"outputs": [],
					"stateMutability": "payable",
					"type": "function"
				}
			],
			"devdoc": {
				"kind": "dev",
				"methods": {},
				"version": 1
			},
			"evm": {
				"assembly": "    /* \"EtherWallet.sol\":57:167  contract EtherWallet {... */\n  mstore(0x40, 0x80)\n  callvalue\n  dup1\n  iszero\n  tag_1\n  jumpi\n  0x00\n  dup1\n  revert\ntag_1:\n  pop\n  dataSize(sub_0)\n  dup1\n  dataOffset(sub_0)\n  0x00\n  codecopy\n  0x00\n  return\nstop\n\nsub_0: assembly {\n        /* \"EtherWallet.sol\":57:167  contract EtherWallet {... */\n      mstore(0x40, 0x80)\n      jumpi(tag_1, lt(calldatasize, 0x04))\n      shr(0xe0, calldataload(0x00))\n      dup1\n      0xa3e76c0f\n      eq\n      tag_3\n      jumpi\n      jump(tag_2)\n    tag_1:\n    tag_2:\n      stop\n        /* \"EtherWallet.sol\":87:131  function ... */\n    tag_3:\n      tag_6\n      tag_7\n      jump\t// in\n    tag_6:\n      stop\n    tag_7:\n      jump\t// out\n\n    auxdata: 0xa2646970667358221220bf7b6ffdf3acb6c3bbf7cbf5fd6453a7a6fc66ff94e2e92555c1c4db171efa6e64736f6c63430008070033\n}\n",
				"bytecode": {
					"linkReferences": {},
					"object": "6080604052348015600f57600080fd5b50606280601d6000396000f3fe608060405260043610601f5760003560e01c8063a3e76c0f146022576020565b5b005b6028602a565b005b56fea2646970667358221220bf7b6ffdf3acb6c3bbf7cbf5fd6453a7a6fc66ff94e2e92555c1c4db171efa6e64736f6c63430008070033",
					"opcodes": "PUSH1 0x80 PUSH1 0x40 MSTORE CALLVALUE DUP1 ISZERO PUSH1 0xF JUMPI PUSH1 0x0 DUP1 REVERT JUMPDEST POP PUSH1 0x62 DUP1 PUSH1 0x1D PUSH1 0x0 CODECOPY PUSH1 0x0 RETURN INVALID PUSH1 0x80 PUSH1 0x40 MSTORE PUSH1 0x4 CALLDATASIZE LT PUSH1 0x1F JUMPI PUSH1 0x0 CALLDATALOAD PUSH1 0xE0 SHR DUP1 PUSH4 0xA3E76C0F EQ PUSH1 0x22 JUMPI PUSH1 0x20 JUMP JUMPDEST JUMPDEST STOP JUMPDEST PUSH1 0x28 PUSH1 0x2A JUMP JUMPDEST STOP JUMPDEST JUMP INVALID LOG2 PUSH5 0x6970667358 0x22 SLT KECCAK256 0xBF PUSH28 0x6FFDF3ACB6C3BBF7CBF5FD6453A7A6FC66FF94E2E92555C1C4DB171E STATICCALL PUSH15 0x64736F6C6343000807003300000000 "
				},
				"deployedBytecode": {
					"immutableReferences": {},
					"linkReferences": {},
					"object": "608060405260043610601f5760003560e01c8063a3e76c0f146022576020565b5b005b6028602a565b005b56fea2646970667358221220bf7b6ffdf3acb6c3bbf7cbf5fd6453a7a6fc66ff94e2e92555c1c4db171efa6e64736f6c63430008070033",
					"opcodes": "PUSH1 0x80 PUSH1 0x40 MSTORE PUSH1 0x4 CALLDATASIZE LT PUSH1 0x1F JUMPI PUSH1 0x0 CALLDATALOAD PUSH1 0xE0 SHR DUP1 PUSH4 0xA3E76C0F EQ PUSH1 0x22 JUMPI PUSH1 0x20 JUMP JUMPDEST JUMPDEST STOP JUMPDEST PUSH1 0x28 PUSH1 0x2A JUMP JUMPDEST STOP JUMPDEST JUMP INVALID LOG2 PUSH5 0x6970667358 0x22 SLT KECCAK256 0xBF PUSH28 0x6FFDF3ACB6C3BBF7CBF5FD6453A7A6FC66FF94E2E92555C1C4DB171E STATICCALL PUSH15 0x64736F6C6343000807003300000000 "
				},
				"gasEstimates": {
					"creation": {
						"codeDepositCost": "19600",
						"executionCost": "75",
						"totalCost": "19675"
					},
					"external": {
						"": "85",
						"receive()": "98"
					}
				},
				"methodIdentifiers": {
					"receive()": "a3e76c0f"
				}
			},
			"storageLayout": {
				"storage": [],
				"types": null
			},
			"userdoc": {
				"kind": "user",
				"methods": {},
				"version": 1
			}
		}
	}
}